S01A00004C4142365F4469676974616C325F6E616E6F2E73726563AB
S11300000C9434000C9446000C9446000C94750037
S11300100C94AE000C9446000C9446000C944600DC
S11300200C9446000C9446000C9446000C94460034
S11300300C9446000C9446000C9446000C94460024
S11300400C9446000C9446000C9446000C94460014
S11300500C9446000C9446000C9446000C94460004
S11300600C9446000C94460011241FBECFEFD8E038
S1130070DEBFCDBF21E0A0E0B1E001C01D92A230FF
S1130080B207E1F70E9464000C94E1000C940000B4
S113009084B1807E84B985B18F6185B987B18F7E43
S11300A087B988B1806188B9E8E6F0E0808183602F
S11300B08083EBE6F0E080818F618083ECE6F0E002
S11300C0808180618083089588E00E94C2000E943C
S11300D048007894809101018823E1F38091000124
S11300E00E94DA0010920101F5CF1F920F920FB611
S11300F00F9211248F9383B180FD07C085E580930F
S1130100000181E08093010123C081FD07C084E4E4
S11301108093000181E0809301011AC082FD07C031
S113012082E58093000181E08093010111C083FD89
S113013007C08CE48093000181E08093010108C032
S113014084FD06C082E48093000181E08093010174
S11301508F910F900FBE0F901F9018951F920F92C2
S11301600FB60F9211248F93349906C081E48093C3
S1130170000181E0809301018F910F900FBE0F90D9
S11301801F9018959AB192609AB99AB19E7F9AB9C4
S11301901092C000E1ECF0E0908198699083E2EC69
S11301A0F0E090819660908390E09093C5008093F6
S11301B0C40008959091C00095FFFCCF8093C600C1
S10901C00895F894FFCF3E
S9030000FC
